S0190000757365725F6C6F67696E5F73797374656D2E73726563D0
S11300000C94BA000C94CF000C94CF000C94CF0045
S11300100C94CF000C94CF000C94CF000C94CF0020
S11300200C94CF000C94CF000C94CF000C94CF0010
S11300300C94CF000C94CF000C94CF000C94CF0000
S11300400C94CF000C94CF000C94CF000C94CF00F0
S11300500C94CF00DD00F6000F012801400140019F
S11300604001400140014001400140014001400184
S11300704001400140014001400140014001400174
S11300804001400140014001400140014001400164
S113009040014001DD00F6000F0128014D01660119
S11300A07F019801B001B001B001B001B001B0010D
S11300B0B001B001B001B001B001B001B001B001B4
S11300C0B001B001B001B001B001B001B001B001A4
S11300D0B001B001B001B001B001B0014D01660141
S11300E07F019801BC01BE01C001C201C301C3016B
S11300F0C301C301C301C301C301C301C301C301DC
S1130100C301C301C301C301C301C301C301C301CB
S1130110C301C301C301C301C301C301C301C301BB
S1130120C301C301BC01BE01C001C201CF01D101A1
S1130130D301D501D601D601D601D601D601D60107
S1130140D601D601D601D601D601D601D601D601F3
S1130150D601D601D601D601D601D601D601D601E3
S1130160D601D601D601D601D601D601CF01D101DF
S1130170D301D50111241FBECFE5D8E0DEBFCDBF2A
S113018011E0A0E6B0E0ECECFBE002C005900D92BB
S1130190A033B107D9F70E94ED020C94E4050C9446
S11301A0000090E0FC01E154F109E432F10508F0AB
S11301B067C0E65DFF4F0C94DE05413059F42AB365
S11301C081E090E002C0880F991F6A95E2F7822BC4
S11301D08ABB08952AB381E090E002C0880F991F7A
S11301E06A95E2F7809582238ABB0895413059F4D9
S11301F027B381E090E002C0880F991F6A95E2F767
S1130200822B87BB089527B381E090E002C0880F5A
S1130210991F6A95E2F78095822387BB0895413040
S113022059F424B381E090E002C0880F991F6A95C5
S1130230E2F7822B84BB089524B381E090E002C0EE
S1130240880F991F6A95E2F78095822384BB0895ED
S1130250413059F421B381E090E002C0880F991F26
S11302606A95E2F7822B81BB089521B381E090E087
S113027002C0880F991F6A95E2F78095822381BB9B
S1130280089590E0FC01E154F109E432F10508F02D
S113029067C0E25BFF4F0C94DE05413059F42BB389
S11302A081E090E002C0880F991F6A95E2F7822BE3
S11302B08BBB08952BB381E090E002C0880F991F97
S11302C06A95E2F7809582238BBB0895413059F4F7
S11302D028B381E090E002C0880F991F6A95E2F785
S11302E0822B88BB089528B381E090E002C0880F78
S11302F0991F6A95E2F78095822388BB089541305F
S113030059F425B381E090E002C0880F991F6A95E3
S1130310E2F7822B85BB089525B381E090E002C00B
S1130320880F991F6A95E2F78095822385BB08950B
S1130330413059F422B381E090E002C0880F991F44
S11303406A95E2F7822B82BB089522B381E090E0A4
S113035002C0880F991F6A95E2F78095822382BBB9
S1130360089590E0FC01E154F109E432F10558F4F8
S1130370EE58FF4F0C94DE056ABB089567BB0895E1
S113038064BB089561BB089590E0FC01E154F10958
S1130390E432F10558F4EA56FF4F0C94DE056BBBCA
S11303A0089568BB089565BB089562BB08959B01D9
S11303B0AC0160E072E18AE790E00E94BC05DA01DA
S11303C0C9014097A109B109B695A7959795879555
S11303D080B911B8089584EA86BF06B607FEFDCF3A
S11303E081B1887F8830E1F7089584EA86BF06B634
S11303F007FEFDCF81B1887F8031E1F7089584E95C
S113040086BF0895880F83B984E886BF06B607FEC1
S1130410FDCF81B1887F8831E1F7089590E0880F9E
S1130420991F816083B984E886BF06B607FEFDCFB5
S113043081B1887F8034E1F7089583B984E886BF69
S113044006B607FEFDCF81B1887F8832E1F70895B3
S113045084E886BF06B607FEFDCF81B1887F883564
S1130460E1F783B1089541E062E082E40E94410132
S11304708FE99FE00197F1F700C0000040E062E0DF
S113048082E40E9441018FE99FE00197F1F700C0E7
S113049000000895CF93C82F40E060E082E40E94FA
S11304A041016C2F81E40E94C4010E9433028FEC4D
S11304B097E00197F1F700C00000CF9108952FEF66
S11304C081EE94E0215080409040E1F700C00000AC
S11304D06FEF81E40E94B10141E062E082E40E9496
S11304E0D10041E061E082E40E94D10041E060E09B
S11304F082E40E94D10040E061E082E40E94410174
S113050088E30E944A028FEC97E00197F1F700C05C
S1130510000081E00E944A028FE19EE40197F1F716
S113052000C000008CE00E944A028FEC97E0019723
S1130530F1F700C0000086E00E944A028FEC97E0C9
S11305400197F1F700C000000895CF93C82F41E050
S113055060E082E40E9441016C2F81E40E94C401A6
S11305600E943302CF910895CF93DF93EC0103C02F
S11305700E94A502219688818111FACFDF91CF9143
S1130580089581E00E944A028FE19EE40197F1F709
S113059000C0000008959FEF980F923070F461310D
S11305A070F4662371F0813019F48FE7860F0CC064
S11305B0823049F48FEB860F07C080E805C080E8DD
S11305C003C080E801C080E00E944A028FEC97E0FB
S11305D00197F1F700C000000895EF92FF920F9386
S11305E01F93CF93DF93CDB7DEB762970FB6F8941E
S11305F0DEBF0FBECDBF0E945F0260E875E280E0FF
S113060090E00E94910560E573EC80E090E00E9428
S1130610D7012FEF82E597E0215080409040E1F729
S113062000C000000E94EB0180E50E94020280E00D
S11306300E941D020E94F50180E50E940E020E94A4
S11306402802182F0E94FF011F3F09F08EC080E688
S113065090E00E94B4022FEF89E698E12150804097
S11306609040E1F700C000000E94C1028FE690E0D4
S11306700E94B40210E020C06BE0610F81E00E9490
S1130680CB020E94B805F82E0E94A502E1E0F0E03A
S1130690EC0FFD1FE10FF11DF0820E94EB0180E5DC
S11306A00E94020285E2810F0E941D028F2D0E948A
S11306B01D020E94FF011F5F1530F0F20E94B80571
S11306C02FEF84E39CE0215080409040E1F700C08C
S11306D000000E94C1028AE790E00E94B40210E088
S11306E02CC00E94B805F82E0E94A5022FEF84E3C7
S11306F09CE0215080409040E1F700C000006AE097
S1130700610F81E00E94CB028AE20E94A502EBE025
S1130710F0E0EC0FFD1FE10FF11DF0820E94EB01F0
S113072080E50E94020281E2810F0E941D028F2D4A
S11307300E941D020E94FF011F5F143090F22FEFF0
S113074084E39CE0215080409040E1F700C0000029
S11307500E94EB0180E50E94020280E00E941D02DB
S113076080E00E941D020E94FF010E94B8052FEF45
S113077084E39CE0215080409040E1F700C00000F9
S11307800E94C10284E890E00E94B4022FEF89E63F
S113079098E1215080409040E1F700C000000E94A1
S11307A0C1028FE690E00E94B40210E02DC06BE01D
S11307B0610F81E00E94CB020E94B805082F0E94BD
S11307C0A502E12EF12CE6E0F0E0EC0FFD1FEE0DAA
S11307D0FF1D00830E94EB0180E50E94020285E276
S11307E0810F0E941D020E94F50180E50E940E0205
S11307F00E942802E1E0F0E0EC0FFD1FEE0DFF1D6A
S113080080830E94FF011F5F153088F22FEF84E37D
S11308109CE0215080409040E1F700C000009981A5
S11308208E81981310C09A818F8198130CC09B817C
S11308308885981308C09C818985981304C09D817C
S11308408A85981739F00E94C10280E990E00E94DD
S1130850B402FFCF0E94B8052FEF84E39CE021503F
S113086080409040E1F700C000000E94C1028AE786
S113087090E00E94B40210E039C00E94B805082F2D
S11308800E94A5022FEF84E39CE021508040904019
S1130890E1F700C000006AE0610F81E00E94CB0232
S11308A08AE20E94A502E12EF12CEFE0F0E0EC0FC9
S11308B0FD1FEE0DFF1D00830E94EB0180E50E94E9
S11308C0020281E2810F0E941D020E94F50180E56F
S11308D00E940E020E942802EBE0F0E0EC0FFD1FE4
S11308E0EE0DFF1D80830E94FF011F5F143028F26C
S11308F02FEF84E39CE0215080409040E1F700C05A
S113090000009B858F8598130CC09C85888998135B
S113091008C09D858989981304C09E858A89981783
S113092039F00E94C1028FE990E00E94B402FFCF27
S11309300E94B8050E94C1028FEA90E00E94B402AE
S11309402FEF89E698E1215080409040E1F700C004
S1130950000061E082E00E94CB0281EC90E00E9402
S1130960B4020E94B805813309F0CCC00E94B805D6
S11309700E94C10280ED90E00E94B40261E082E036
S11309800E94CB028EED90E00E94B4020E94B80552
S1130990813309F059C00E94B8052FEF84E39CE02D
S11309A0215080409040E1F700C000000E94C10245
S11309B08AE790E00E94B40210E025C00E94B805C6
S11309C0F82E0E94A5022FEF84E39CE02150804082
S11309D09040E1F700C000006AE0610F81E00E94EE
S11309E0CB028AE20E94A5020E94EB0180E50E94EC
S11309F0020281E2810F0E941D028F2D0E941D02BE
S1130A000E94FF011F5F1430C8F22FEF84E39CE0C3
S1130A10215080409040E1F700C000000E94C102D4
S1130A208CEE90E00E94B4022FEF89E698E1215009
S1130A3080409040E1F700C000000E94C1028DEFA9
S1130A4090E00E94B4025EC0823309F05BC00E9451
S1130A50B8052FEF84E39CE0215080409040E1F7FB
S1130A6000C000000E94C10289E091E00E94B4022B
S1130A702FEF89E698E1215080409040E1F700C0D3
S1130A8000000E94C10289E191E00E94B40210E0DA
S1130A9019C06BE0610F81E00E94CB020E94B8058F
S1130AA0F82E0E94A5020E94EB0180E50E9402023A
S1130AB085E2810F0E941D028F2D0E941D020E945B
S1130AC0FF011F5F153028F32FEF84E39CE02150D2
S1130AD080409040E1F700C000000E94C10283E220
S1130AE091E00E94B4022FEF89E698E12150804002
S1130AF09040E1F700C000000E94C1028DEF90E039
S1130B000E94B40280E090E062960FB6F894DEBFD3
S1130B100FBECDBFDF91CF911F910F91FF90EF904A
S1130B200895DC01CB01880F991FAA1FBB1F880FF2
S1130B30991FAA1FBB1F9C01AD01220F331F441F25
S1130B40551F220F331F441F551F60E072E18AE7CF
S1130B5090E00E94BC052150310930BD29B98AB109
S1130B6088608AB98AB180618AB986E880BD0895AF
S1130B705F9BFECF8CB10895A1E21A2EAA1BBB1B6A
S1130B80FD010DC0AA1FBB1FEE1FFF1FA217B30755
S1130B90E407F50720F0A21BB30BE40BF50B661F6B
S1130BA0771F881F991F1A9469F76095709580952F
S1130BB090959B01AC01BD01CF010895EE0FFF1F7D
S10F0BC00590F491E02D0994F894FFCF07
S1130BCC202020437265617465206E616D6500752B
S1130BDC736572206E616D653A0070617373776F23
S1130BEC72643A0075736572206C6F67696E2000CD
S1130BFC75736572206E6F74206578697421005763
S1130C0C726F6E672050617373776F726421004C3E
S1130C1C6F67696E205375636365737366756C21B6
S1130C2C007072657373203120746F2073657400C7
S1130C3C312D6368616E6765207061737300322DAA
S1130C4C6368616E6765206E616D650070617373B6
S1130C5C776F7264206368616E676564002020207E
S1130C6C2077656C636F6D650020746F2063686119
S1130C7C6E6765206E616D65006E6577206E616DC3
S1130C8C653A006E616D65206368616E676564002A
S9030000FC
